:060000000200330201665C
:03000B000201B23D
:03001300020208DE
:03001B00020209D5
:0300230002026175
:1000330075814F312E90009011B074C03151C2B709
:10004300315F9000A011B0D2AF75B80275891175F8
:1000530030FD7531307532FF7533B0753409D2A96F
:10006300D28DD288D2A8D2ABD28EE534B5350280F8
:100073000585343511F8A2035005A205B38002A209
:100083000550E7A2039205D2AF11D480DD5354414A
:100093005445203A20202020204C494E45535045BA
:1000A3004544203A20202020202020202578107449
:1000B30000C0E011BED0E004D8F72293B40002D30D
:1000C300223151D2B7C083C082315FD082D083C383
:1000D3002274883151C2B7315F20050B75394F75D2
:1000E3003A55753B548009753920753A49753B4E2D
:1000F300793931212274CC3151C2B7315FE535B43E
:100103000A0B753631753730753830800C753620EB
:1001130074302535F53775383079363121227A0335
:10012300E73151D2B7315F09DAF622C2B6743831FA
:1001330051C2B7315F74013151C2B7315F740F31AE
:1001430051C2B7315F74063151C2B7315F227F04A8
:100153007EFADEFEDFFA227D3CDDFE22F580D2B69A
:10016300C2B622C0E0C0D0C082C083C2A97B32D253
:10017300B2A2B2402FDBFA0534E534B40B11753467
:07018300017530FF7531B07A
:10018A007532FD7533308015E531C3945050021530
:10019A0030F531E533245050020532F533D2A9D077
:1001AA0083D082D0D0D0E032C0E0C0D0C082C08339
:1001BA00C2AFC28CE534B40A0C85FC8C85E08AD2C5
:1001CA008CD200801B30000CC20085308C85318AAD
:1001DA00D28C800CD20085328C85338AD28C8010E6
:1001EA00300104D294C295300209D296C297800394
:1001FA0053900FD083D082D0D0D0E0D2AF3232C069
:10020A00E0C0D0C082C083C28E85FC8D85188BD297
:10021A008EC2AFD292A2929201D293A2939202A2DA
:10022A00015005A202B38002A202400FD201D202FB
:10023A00300104D2038015C2038011300108C201C3
:10024A00D202C2038006D201C202D203D083D08274
:08025A00D0D0D0E0D2AF323267
:00000001FF
